:020000040800F2
:10000000C0170020210200080B1A00081B18000866
:10001000091A00088B0300080B25000800000000E7
:10002000000000000000000000000000890100083E
:100030008D03000800000000CD01000845220008E3
:100040003B0200083B0200083B0200083B0200089C
:100050003B0200083B0200083B0200083B0200088C
:100060003B0200083B0200083B0200083B0200087C
:100070003B0200083B0200083B0200083B0200086C
:100080003B0200083B0200083B0200083B0200085C
:100090003B0200083B0200083B0200083B0200084C
:1000A0003B0200083B0200083B0200083B0200083C
:1000B0003B0200083B020008C92200083B0200087E
:1000C0003B0200083B0200083B0200083B0200081C
:1000D0003B0200083B0200083B0200083B0200080C
:1000E0003B0200083B0200083B02000800F002F857
:1000F00000F03AF80AA090E8000C82448344AAF188
:100100000107DA4501D100F02FF8AFF2090EBAE885
:100110000F0013F0010F18BFFB1A43F0010318473B
:100120004C2F00006C2F0000103A24BF78C878C113
:10013000FAD8520724BF30C830C144BF04680C60ED
:10014000704700000023002400250026103A28BF35
:1001500078C1FBD8520728BF30C148BF0B60704739
:100160001FB51FBD10B510BD00F0D6F81146FFF742
:10017000F7FF02F0DBF900F0F4F803B4FFF7F2FF49
:1001800003BC00F0FBF80000224B19680868B0E8D7
:10019000F00F80F30988BFF36F8F4FF0000080F3FA
:1001A00011884EF00D0E70470000000006480068F0
:1001B000006880F3088862B661B6BFF34F8FBFF363
:1001C0006F8F00DF00BF00BF08ED00E0EFF3098094
:1001D000BFF36F8F0F4B1A6820E9F00F106008B55E
:1001E0004FF0500080F31188BFF34F8FBFF36F8F34
:1001F00002F080FD4FF0000080F31188BDE8084058
:1002000019680868B0E8F00F80F30988BFF36F8FB2
:10021000704700BF48000020EFF3058070470000E2
:100220000948804709480047FEE7FEE7FEE7FEE78A
:10023000FEE7FEE7FEE7FEE7FEE7FEE704480549C6
:10024000054A064B70470000C5220008ED00000873
:10025000C0110020C0170020C0130020C0130020D0
:1002600010B5203AC0F00B80B1E81850203AA0E851
:100270001850B1E81850A0E81850BFF4F5AF5FEA85
:10028000027C24BFB1E81850A0E8185044BF18C938
:1002900018C0BDE810405FEA827C24BF51F8043BDF
:1002A00040F8043B08BF7047D20728BF31F8023B33
:1002B00048BF11F8012B28BF20F8023B48BF00F8C7
:1002C000012B70474FF0000200B513469446964646
:1002D000203922BFA0E80C50A0E80C50B1F1200159
:1002E000BFF4F7AF090728BFA0E80C5048BF0CC007
:1002F0005DF804EB890028BF40F8042B08BF704765
:1003000048BF20F8022B11F0804F18BF00F8012BD6
:100310007047704770477047754600F02BF8AE463F
:1003200005006946534620F00700854618B020B501
:10033000FFF784FFBDE820404FF000064FF00007B4
:100340004FF000084FF0000B21F00701AC46ACE87D
:10035000C009ACE8C009ACE8C009ACE8C0098D46EA
:10036000704710B50446AFF300802046BDE810404A
:10037000FFF703BF004870476011002001491820B3
:10038000ABBEFEE7260002007047FEE770470000A4
:1003900070B5044600F004F90546601C02D004481C
:1003A0000078044400F0FCF8401BA042FAD370BD72
:1003B000200000202DE9F84FDFF8B8910024A9F1C2
:1003C000040B23460F2709F1040AABF1040EC9E020
:1003D0000125A5402A40AA427DD1674ED1F804C02C
:1003E000ACEB0608B44532D014DCBCF1030F3AD0B4
:1003F00009DCBCF1000F2AD0BCF1010F1CD0BCF10C
:10040000020F31D11DE0BCF1110F17D0BCF1120F5A
:100410002AD119E0B8F5881F19D006DCB8F5803F5D
:1004200015D0B8F5801F1FD111E0B8F5001F0ED010
:10043000B8F5041F18D10AE0CB6815E0CB681B1D86
:1004400012E0CB6808330FE0CB680C330CE08B680C
:100450002BB1012B4FF0080303D0456104E00423C6
:1004600002E0056100E00023FF2A01D8064601E012
:1004700000F104064FEA840501D9A5F12005D6F85C
:10048000008007FA05FC28EA0C0803FA05F548EA9B
:100490000508C6F800804D68ED0062D5374DAE699D
:1004A00046F00106AE61AD6924F0030605F00105D2
:1004B0000095334D06EB050CDCF80850A607360F07
:1004C00007FA06F825EA0805DFF8B880404503D1A9
:1004D0004FF0000817E044E0DFF8AC80404502D15F
:1004E0004FF001080FE0DFF8A480404502D14FF043
:1004F000020808E0DFF89880404502D14FF0030879
:1005000001E04FF0040808FA06F848EA0508CCF8BC
:1005100008804D68D9F80060ED024D4601D51643BC
:1005200000E096432E604D68DAF80060AD02554653
:1005300001D5164300E096432E604D68DBF800605D
:10054000AD035D4601D5164300E096432E604D682D
:10055000DEF80060ED03754601D5164300E09643D2
:100560002E60641C0D682A46E5407FF431AFBDE87B
:10057000F88F000008040140000011100010024034
:100580000000014000080140000C01400010014043
:10059000001401400AB1016170470904FBE7000043
:1005A00001488068704700002000002002488168F0
:1005B000027811448160704720000020074810B580
:1005C000016841F010010160032000F0A7F80F203E
:1005D00000F006F800F050F8002010BD00200240A6
:1005E00030B505461F4887B0C16941F00401C161BB
:1005F000C06906A900F00400009001A800F036F9D7
:100600000498B0B100F052F940001749174AB0FB06
:10061000F1F11748491E0260416040F2E7320021C3
:10062000C0E903218160816100F052FE040003D023
:1006300015E000F03BF9E8E70D4800F08BFE040000
:100640000DD11E2000F03CF8102D07D200222946C3
:100650001E2000F043F80748056000E0012407B0C1
:10066000204630BD0010024040420F00000800400C
:10067000D0030020240000200F4808B5816941F014
:1006800001018161816901F001010091C16941F0BD
:100690008051C161C069002200F0805000900F219C
:1006A000901E00F01BF80548416821F0E06141F020
:1006B0000071416008BD00000010024000000140D0
:1006C000002809DB00F01F02012191404009800051
:1006D00000F1E020C0F8001170470000F0B40E4BAC
:1006E0001B680C46C3F30223C3F10705042D00D990
:1006F0000425191D072901D2002300E0DB1E012675
:1007000006FA05F1491E214099409E40761E16408A
:100710003143F0BC01F0FABE0CED00E0064900F0F8
:10072000070208684FF6FF03184040EA0220034A18
:1007300010430860704700000CED00E00000FA056F
:100740002DE9F0470F46050061D0434E306800F0B8
:100750000700B84209D2306820F007003843306003
:10076000306800F00700B84251D128683B4C81073F
:1007700012D5400703D5606840F4E06060602878D7
:10078000000703D5606840F4605060606068A96845
:1007900020F0F000084360602878C00728D068681F
:1007A000012810D02168022810D0890700292EDAEC
:1007B000616821F0030101436160FFF7F1FE8046AB
:1007C00041F288390DE021688903EFE78901EDE7FF
:1007D000FFF7E6FEA0EB0801494502D90320BDE87A
:1007E000F0876068696800F00C00B0EB810FEFD112
:1007F000306800F00700B8420BD9306820F00700DD
:1008000038433060306800F00700B84201D0012062
:10081000E5E72878400705D56068E96820F4E060DE
:10082000084360602878000706D56068296920F4CD
:10083000605040EAC100606000F048F86168084A12
:10084000C1F30311515CC8400649086006480068BE
:10085000FFF7C6FE0020C2E7002002400010024061
:10086000463000082C000020240000200F220260E7
:100870000C4A536803F003034360536803F0F0032A
:100880008360536803F4E063C36052684FF4E0632D
:1008900003EAD20202610448006800F00700086021
:1008A0007047000000100240002002400448054943
:1008B00000684968044AC1F30221515CC84070478E
:1008C0002C00002000100240563000080E4A5168EB
:1008D0000E4801F00C03042B11D0082B0FD10C484B
:1008E000C1F38343C903C05C0AD55168084AC1F308
:1008F0004041921E515C054A5043B0FBF1F07047F5
:1009000004494843704700000010024000127A007A
:100910003630000800093D002DE9F84F040070D082
:100920002078C04DC00749D06868C0F38100012815
:1009300007D06868C0F38100022809D16868C00345
:1009400006D52868800339D560680028E7D035E0EF
:100950006068B0F5803F0BD010B1B0F5A02F11D07A
:10096000286820F480302860286820F4802002E085
:10097000286840F480302860606890B1FFF710FE6E
:1009800006460AE0286840F480202860F0E700BFAF
:10099000FFF706FE801B642873D828688003F7D50C
:1009A0000CE0FFF7FDFD064605E000BFFFF7F8FD90
:1009B000801B6428F0D828688003F7D420789A4EEA
:1009C00080074FF001094FF0000839D5686810F032
:1009D0000C0F07D06868C0F38100022809D168684D
:1009E000C00306D42868800714D52069012808D1DF
:1009F00010E02069B0B1C6F80090FFF7D1FD0746BE
:100A000005E00AE1FFF7CCFDC01B0228C4D8286826
:100A10008007F7D52868616920F0F80040EAC10036
:100A200028600DE0C6F80080FFF7BAFD074604E035
:100A3000FFF7B6FDC01B022823D828688007F7D42B
:100A4000207800072CD57948A169D9B1C0F8009069
:100A5000FFF7A6FD074604E0FFF7A2FDC01B022832
:100A60000FD8686A8007F7D571484FF4FA510068CB
:100A7000B0FBF1F0009000BF0098411E0091FAD247
:100A80000EE080E0C0F80080FFF78AFD074604E032
:100A9000FFF786FDC01B022875D8686A8007F7D467
:100AA0002078400760D5E8690027C00008D4E869CD
:100AB00040F08050E861E869012700F08050009024
:100AC0005C480168C90513D40168834641F480710C
:100AD0000160FFF765FD824606E000BFFFF760FD9D
:100AE000A0EB0A0064284ED8DBF80000C005F5D55D
:100AF000E06801280AD008B1052813D0286A20F040
:100B000001002862286A20F0040002E0286A40F010
:100B100001002862E06841F2883B98B1FFF740FD90
:100B200082460BE0286A40F004002862EEE700BF2E
:100B3000FFF736FDA0EB0A0159455AD8286A80070D
:100B4000F6D50CE0FFF72CFD824605E0FFF728FD07
:100B5000A0EB0A0159454CD8286A8007F6D41FB18A
:100B6000E86920F08050E861E06988B36968C1F302
:100B70008101022944D00228C6F8608004D0FFF722
:100B80000FFD044638E034E0FFF70AFD074604E0B5
:100B9000FFF706FDC01B02282BD828688001F7D478
:100BA000206AB0F5803F05D16868A16820F4003064
:100BB00008436860D4E908010843696821F47411A6
:100BC00008436860C6F86090FFF7EAFC044606E058
:100BD00025E000BFFFF7E4FC001B022809D82868C5
:100BE0008001F7D51BE000BFFFF7DAFC001B0228ED
:100BF00002D90320BDE8F88F28688001F4D40EE004
:100C00000128F7D06868226A00F48031914204D14B
:100C1000616A00F47010884201D00120EAE70020E8
:100C2000E8E7000000100240000042428004424217
:100C30002C0000200070004070B5040009D0606AEC
:100C4000002540B125616561A56294F8510040B16D
:100C50000CE0012070BD6068B0F5827FF4D0E561E2
:100C6000F2E784F85050204600F040F8022084F863
:100C700051002068016821F040010160A0882189AD
:100C800000F4827001F404410843A18901F4006179
:100C90000843217C01F002010843217D01F001019C
:100CA0000843218B01F400710843217F01F03801D2
:100CB000084394F8201001F080010843218D01F4CD
:100CC0000051084321680860A069042101EA10402E
:100CD000216848602068C16921F40061C1616565CF
:100CE000012084F85100002070BD000030B585B0AF
:100CF00000240094019402940394006814498842EB
:100D000023D11448816941F480518161816901F4E2
:100D100080510491816941F00401816180690E4D27
:100D200000F004000490A020009002200190032015
:100D3000039069462846FFF73DFB4020CDE90004BB
:100D4000694628460294FFF735FB05B030BD000028
:100D50000030014000100240000801402DE9F84F2A
:100D6000044690F85100984616460F460025012883
:100D700001D0022598E060684FF0040BB0F5827F47
:100D800001D1A068F8B194F85000012826D04FF0A6
:100D9000010984F85090FFF703FC8246002F7FD0B2
:100DA000002E7DD084F851B000206065A763A6872F
:100DB000E6872063A086E08620646064A068B0F5C2
:100DC000004F0DD016E084F851B013460A46204675
:100DD000CDF8008000F024F9BDE8F88F0220FBE791
:100DE0002068016821F0400101602068016821F459
:100DF0008041016020680168490603D4016841F020
:100E000040010160E068D8B13BE020688168C90713
:100E100009D0007BA16B0870A06B401CA063E08F21
:100E2000401EE0870CE0FFF7BBFBA0EB0A01414549
:100E300003D3B8F1FF3F03D006E0B8F1000F03D0B1
:100E4000E08F0028E1D11FE003252BE020688168B6
:100E5000C90709D0C068A16B0880A06B801CA06383
:100E6000E08F401EE0870CE0FFF79AFBA0EB0A0141
:100E7000414503D3B8F1FF3F03D0E5E7B8F1000FD8
:100E8000E2D0E08F0028E1D152464146204601F0F1
:100E9000A3F808B120206065606D00E000E008B1B3
:100EA000012501E084F85190002084F85000284684
:100EB00092E72DE9F84F044690F850000026984636
:100EC00015468A4601280CD0012784F85070FFF798
:100ED00067FB814694F85100B346012804D00226EE
:100EE0009AE00220BDE8F88FBAF1000F6FD0002D14
:100EF0006DD0032084F85100C4F854B0C4F830A079
:100F0000A586E586C4F838B0A4F83CB0A4F83EB095
:100F1000C4F844B0C4F840B0A068B0F5004F09D19F
:100F20002068016821F0400101602068016841F4F7
:100F30008041016020680168490603D4016841F0DE
:100F400040010160E068B0F5006F606803D058B3FD
:100F5000012D29D049E008B1012D1FD1206B216856
:100F60000088C86006E020688168890709D5216B80
:100F70000988C160206B801C2063E08E401EE086E3
:100F80000CE0FFF70DFBA0EB0901414503D3B8F1DD
:100F9000FF3F03D006E0B8F1000F03D0E08E002839
:100FA000E1D125E0032635E0206B21680078087345
:100FB00006E02068816889070AD5216B09780173EA
:100FC000206B401C2063E08E401EE0860DE01FE099
:100FD000FFF7E6FAA0EB0901414503D3B8F1FF3F63
:100FE00003D0DFE7B8F1000FDCD0E08E0028E0D1BD
:100FF0004A464146204601F01DF808B120206065B0
:10100000A06818B92068C16880680090606D08B158
:10101000012601E084F8517084F850B0304661E751
:101020002DE9FF4F81B0044690F8500000260E9F36
:101030001D4693464FF0010901280FD04FF0010AD9
:1010400084F850A0FFF7ACFA804694F8510061682C
:1010500001280DD0B1F5827F08D103E0022005B050
:10106000BDE8F08FA16809B9042801D00226C9E0C3
:101070000298002865D0BBF1000FFBD0002DF9D0FD
:1010800094F85100042802D0052084F85100002073
:101090006065C4F838B0E587A58702992163E586C5
:1010A000A5862064606420680168490603D401684D
:1010B00041F040010160E068B0F5006F606803D066
:1010C000F0B3012D47D081E008B1012D3CD1206B58
:1010D00021680088C860206B801C2063E08E401E61
:1010E000E08631E02068816889070FD5E18E69B11B
:1010F000B9F1010F0AD1216B0988C160206B801CF6
:101100002063E08E401EE0864FF000092068816871
:10111000C9070CD0E18F51B1C068A16B0880A06BEA
:10112000801CA063E08F401EE0874FF00109FFF7AD
:1011300037FAA0EB0800B84206D3781C04D001E0CF
:1011400009E05BE003265BE0E08E0028CAD1E08F77
:101150000028C7D140E0206B216800780873206B1D
:10116000401C2063E08E401EE0862FE020688168EE
:1011700089070FD5E18E69B1B9F1010F0AD1216B51
:1011800009780173206B401C2063E08E401EE086CE
:101190004FF0000920688168C9070CD0E18F51B178
:1011A000C068A16B0870A06B401CA063E08F401E5C
:1011B000E0874FF00109FFF7F3F9A0EB0800B84210
:1011C00002D3781C02D0BAE7002FB8D0E08E0028F6
:1011D000CCD1E08F0028C9D142463946204600F0E4
:1011E00029FF18B10126202060650BE0A06818B91E
:1011F0002068C16880680090606D08B1012601E038
:1012000084F851A0002084F85000304627E770474A
:10121000704710B590F83C20012A22D0012280F8B6
:101220003C20CA688C6822F4407222434C6822F445
:10123000806222430C6822F4006222430C6922F48B
:10124000805222434C6922F400522243C969002390
:1012500022F480420A4301684A6480F83C3000204E
:1012600010BD022010BD000070B590F83C20012A8E
:1012700026D0012480F83C40022280F83D200368FB
:101280005A689D6822F070060A6832435A600D4B16
:1012900002689A4208D0B2F1804F05D00A4B9A42B8
:1012A00002D00A4B9A4204D1496825F080031943C1
:1012B000916080F83D40002180F83C10084670BDE8
:1012C000022070BD002C01400004004000080040D6
:1012D00010B5040003D094F83D0010B107E00120E0
:1012E00010BD002084F83C00204600F01FF80220CA
:1012F00084F83D00211D206800F0ECFF012084F8F7
:10130000460084F83E0084F83F0084F8400084F8EA
:10131000410084F8420084F8430084F8440084F8D3
:10132000450084F83D00002010BD000008B50068AD
:101330000649884208D10648816941F4006181610B
:10134000806900F40060009008BD0000002C01409E
:101350000010024090F83D10012901D00120704793
:10136000022180F83D100168CA6842F00102CA609B
:1013700000680B49884208D0B0F1804F05D0094978
:10138000884202D00849884204D1816801F00701EF
:10139000062903D0016841F0010101600020704777
:1013A000002C0140000400400008004070B50446D5
:1013B00090F83C000025012817D0012684F83C60F5
:1013C000022084F83D002068826822F0770222F42F
:1013D0007F4282600868502838D00DDC20284FD02A
:1013E00005DC90B3102811D14AE0022070BD3028EE
:1013F00046D040280AD13BE060282FD070280DD07D
:10140000B0F5805F03D0B0F5005F12D0012584F8FD
:101410003D60002084F83C00284670BDCB68D1E9CF
:101420000121206800F099FF2068816841F0770170
:1014300009E0CB68D1E90121206800F08EFF206827
:10144000816841F480418160E1E719E0CA68496838
:10145000206801F037F85021206806E0CA68496822
:10146000206801F040F86021206800F080FFCEE79E
:10147000CA684968206801F025F840212068F4E72F
:10148000226801461046F0E7704770B504460068D0
:1014900001694FF00005C943890715D4C168C943E4
:1014A000890711D4E91E0161012020772068806935
:1014B0008007204602D0FFF7E7FF04E000F0BEF807
:1014C000204600F050F9257720680169C943490793
:1014D00017D4C168C943490713D46FF004010161EF
:1014E000022020772068806910F4407F204602D0D7
:1014F000FFF7CAFF04E000F0A1F8204600F033F93E
:10150000257720680169C943090716D4C168C94312
:10151000090712D46FF008010161042020772068C8
:10152000C0698007204602D0FFF7AEFF04E000F05C
:1015300085F8204600F017F9257720680169C9432E
:10154000C90617D4C168C943C90613D46FF0100186
:101550000161082020772068C06910F4407F204690
:1015600002D0FFF791FF04E000F068F8204600F099
:10157000FAF8257720680169C943C90708D1C1680D
:10158000C943C90704D1891E0161204600F03AF918
:1015900020680169C943090609D4C168C94309061D
:1015A00005D46FF0800101612046FFF730FE20680E
:1015B0000169C943490609D4C168C943490605D42C
:1015C0006FF040010161204600F026F920680169B2
:1015D000C94389060BD4C168C943890607D46FF093
:1015E000200101612046BDE87040FFF711BE70BDCB
:1015F00000B585B00021009101910291039100682E
:101600000B49884212D10B48816941F00401816184
:101610008069694600F0040004904FF44070009027
:101620000220019003900448FEF7C4FE05B000BDFF
:10163000002C01400010024000080140704770B5C6
:10164000044690F83C0000260D4601280FD00120EA
:1016500084F83C006AB1042A1DD0082A2FD00C2A35
:101660003FD00126002084F83C00304670BD0220A7
:1016700070BD206800F084FE2068816941F0080197
:1016800081612068816921F004018161206881699C
:101690002A69114311E0206800F09AFE20688169F0
:1016A00041F4006181612068816921F48061816178
:1016B000206881692A6941EA02218161D2E72068B4
:1016C00000F0B2FE2068C16941F00801C1612068E4
:1016D000C16921F00401C1612068C1692A6911430F
:1016E00011E0206800F0CCFE2068C16941F400617F
:1016F000C1612068C16921F48061C1612068C1694C
:101700002A6941EA0221C161ACE710B5040003D0A7
:1017100094F83D0010B107E0012010BD002084F8CE
:101720003C00204600F01EF8022084F83D00211DF8
:10173000206800F0CFFD012084F8460084F83E00C8
:1017400084F83F0084F8400084F8410084F84200A7
:1017500084F8430084F8440084F8450084F83D0090
:10176000002010BD7047704710B50446022249B1F1
:1017700004290ED0082913D094F84100012816D06E
:10178000012010BD94F83E000128F9D184F83E20D4
:101790000FE094F83F000128F2D184F83F2008E0E0
:1017A00094F840000128EBD184F8402001E084F84F
:1017B00041200122206800F0C3FD0F4920688842C3
:1017C00003D1426C42F4004242642068884208D04F
:1017D000B0F1804F05D00949884202D008498842BB
:1017E00004D1816801F00701062903D0016841F0A6
:1017F00001010160002010BD002C014000040040E8
:101800000008004000680349884201D1FEF7CEBEBF
:1018100070470000000800407047FEE72DE9F04FD8
:1018200085B000242E4800940194029403948169A9
:1018300041F010018161816901F010010491816919
:1018400041F020018161816901F0200104918169E9
:1018500041F004018161816901F004010491816911
:1018600041F0080181618069DFF8789000F008009C
:101870004FF400550490002229464846FEF78AFEA0
:10188000DFF864A04FF41C47002239465046FEF7AB
:1018900081FEDFF858B04FF44078002241465846A8
:1018A000FEF778FE0095022601250396CDE9015446
:1018B00069464846FEF77EFD00970396CDE9015440
:1018C00069465046FEF776FDCDF800800396CDE9D7
:1018D000015469465846FEF76DFD05B0BDE8F08F2E
:1018E000001002400010014000080140000C0140BF
:1018F0000E4810B50C4901604FF48271416000211F
:101900008160C1604FF400720161C0E90512C161DC
:101910000162416281620A21C162FFF78DF90028EC
:1019200001D072B6FEE710BD00300140A8000020D3
:1019300010B596B000240F9410941194129413943F
:101940001C2168461494FEF7BDFC202107A8FEF771
:10195000B9FC2C482A4901604F21C0E9011440F22A
:10196000E731C0E9031444618461FFF7B1FC08B1B9
:1019700072B6FEE74FF480500F900FA92148FFF791
:1019800015FD08B172B6FEE71E48FFF7BEFE08B1AE
:1019900072B6FEE7139413A91A481494FFF764FC77
:1019A00008B172B6FEE76020CDE90004029403940A
:1019B000049405940022694612480694FFF73FFEFE
:1019C00008B172B6FEE7042269460E48FFF737FEFB
:1019D00008B172B6FEE70794089409944FF40050DA
:1019E0000A94CDE90B4007A906480E94FFF711FCB5
:1019F00008B172B6FEE70348FFF7FAFD16B010BD56
:101A0000002C014000010020FEE7FEE708B50020A1
:101A100000F00AF950208DF8000073208DF80100C5
:101A20006423022269460348FFF743FA012000F0CD
:101A3000FBF808BD180400200449054A0968B1FBF9
:101A4000F2F14143491EFDD2704700002C000020F6
:101A5000C0C62D000020AFF3008070B5054600F031
:101A600051F90446C0F380166EB115B1C4F34200BB
:101A700028704021072000F079FAA00603D5202124
:101A8000072000F073FA304670BD00000FB47CB53B
:101A900014460D460646582209A95C48FEF7E0FBAD
:101AA0005B4B0120DE60DD801C8100F0BDF8002072
:101AB00000F0B0F80520FEF76BFC0821002000F0D4
:101AC00055FA3F21012000F051FA0321022000F0D5
:101AD0004DFA0321084600F049FA0321042000F0E2
:101AE00045FA0221052000F041FA0F21062000F0FE
:101AF0003DFA0E21072000F039FA0021082000F0FD
:101B000035FA0021092000F031FAE7248DF803406E
:101B10008DF802408DF801408DF804408DF80040AA
:101B2000052269460A2000F039FAC2208DF8030028
:101B30008DF802008DF801008DF804008DF800008A
:101B4000052269460B2000F029FAC3210C2000F081
:101B50000DFAC4210D2000F009FAC5210E2000F075
:101B600005FAC6210F2000F001FA8DF803408DF828
:101B700002408DF801408DF804408DF800400522A8
:101B80006946102000F00AFA0021112000F0EEF959
:101B90000021122000F0EAF90021132000F0E6F9FC
:101BA0000021142000F0E2F90021152000F0DEF9F8
:101BB0000021162000F0DAF9FFF728FF00211C2091
:101BC00000F0D4F900211D2000F0D0F90F210846C3
:101BD00000F0A2F9032000F079F9012000F048F9A3
:101BE000022000F02AF900F029F8202000F08CF9FA
:101BF00000F018F94C2000F034F900F07FF800F004
:101C000079F800F0AFF87CBC5DF814FB18040020F4
:101C100030000020020003480189C06800D0012282
:101C2000FEF7B8BC3000002002000348C188C0683D
:101C300000D00122FEF7AEBC3000002010B51D2000
:101C400000F0D0F820F004011D2000F08FF90021F1
:101C50001C2000F08BF902490020C87010BD000064
:101C60003000002010B51D2000F0BCF840F0060147
:101C70001D2000F07BF91D2000F0B4F848B9FFF7F3
:101C8000C5FE1D2000F0AEF840F006011D2000F05A
:101C90006DF91C2000F0A6F840F00301BDE81040EB
:101CA0001C2000F063B9000010B51D2000F09AF868
:101CB00040F004011D2000F059F91D2000F092F8B9
:101CC00048B9FFF7A3FE1D2000F08CF840F0040196
:101CD0001D2000F04BF91C2000F084F840F03F017B
:101CE0001C2000F043F902490120C87010BD00001B
:101CF00030000020FF21E22000F038B9FF21E12070
:101D000000F034B9072000F06DB800007FB5040082
:101D10001248134D06D0062C1ED8022C07D2005DA7
:101D2000052206E0DDE90212C5E90412F7E7005DCD
:101D3000012202A900F032F90848A978801F005D4D
:101D400000F014F9022000F04DF80121A1400843F1
:101D5000C1B2022000F00AF97FBD00006430000823
:101D60003000002010B5002000F03CF820F0020107
:101D7000BDE81040002000F0F9B810B500F010F8F0
:101D8000172000F02FF800F00104FFF7B3FF6020E8
:101D900000F028F80CB1012010BD002010BD00009B
:101DA00038B505460D4884788C4200D90C46002091
:101DB000FFF73AFF61208DF8000064230122694695
:101DC0000748FFF776F86423224629460448FEF7C1
:101DD000C5FF0120FFF728FF38BD000030000020BC
:101DE0001804002038B504460020FFF71DFF04F05A
:101DF0001F008DF800006423012269460848FFF7A0
:101E000058F86423012206480DF10101FEF7A6FFF0
:101E10009DF801400120FFF707FF204638BD000074
:101E2000180400207021072000F0A0B808B13F215D
:101E300000E00021012000F099B810B50446002010
:101E4000FFF7D0FF20F00C011CB1012C06D041F0AF
:101E50000C01BDE81040002000F088B841F00801F6
:101E6000F7E77F2800D37F200146052000F07EB8E9
:101E70002DE9F04107464FF000080620FFF7B2FFBA
:101E8000114D002620F028046E71022F0ED0012F74
:101E900010D06E712146062000F068F80620FFF78A
:101EA000A1FFA0420BD14FF0010809E06E7144F090
:101EB0002004EFE70120687144F00804EAE76E713E
:101EC0004046BDE8F08100003000002010B5044617
:101ED0000620FFF787FF20F00601032C0DD0022C0F
:101EE00005D0012C06D054B1042C06D007E041F0F7
:101EF000040104E041F0020101E041F00601BDE807
:101F00001040062000F032B8202800D320200149DC
:101F1000887070473000002000F00F0060F31F1140
:101F2000042000F023B8000010B50020FFF75AFF8E
:101F300040F00301002000F019F80B49D1E9040139
:101F4000084305D00849052210310A2000F026F880
:101F5000FFF7D4FEFFF7CEFE0120FFF75BFEBDE8E2
:101F600010409620FFF768BD3000002038B50546C8
:101F70000C460020FFF758FE45F020008DF80000C9
:101F80008DF801406423022269460348FEF791FF61
:101F90000120FFF749FE38BD18040020F8B50446BB
:101FA00015460E460020FFF73FFE44F020008DF856
:101FB00000006423012269460648FEF77AFF642385
:101FC0002A4631460348FEF774FF0120FFF72CFE36
:101FD000F8BD000018040020F8B5044640684FF42E
:101FE0008273984217D1A0684FF48065B0F5004F16
:101FF00001D0A8420FD12068066826F0400606608E
:102000006068984207D1A068A84204D100920B46AC
:102010000022012103E000920B460022802120468D
:1020200000F018F8002804D0606D40F020006065D2
:102030000320F8BD38B50B460092044600228021EB
:1020400000F008F8002804D0606D40F020006065C2
:10205000032038BD2DE9F8431E46914688460446C4
:10206000089DFEF79DFA401B351AFEF799FA0746C0
:1020700025480068C0F3CB30684338E0701C37D087
:10208000FEF78EFAC01BA84203D215B1009860B3C8
:102090002CE02068416821F0E00141606068B0F503
:1020A000827F0BD1A068B0F5004F02D0B0F5806FF1
:1020B00004D12068016821F040010160A06AB0F5F8
:1020C000005F09D12068016821F400510160206897
:1020D000016841F400510160012084F851000020A2
:1020E00084F850000320BDE8F8830025401E0090CE
:1020F0002068816838EA010004D000214945BDD13B
:102100000020F0E70121F9E72C000020334C324D8C
:102110004FF40046E7144FF480584FF48069287854
:1021200001281DD002282CD003283CD004284CD0F4
:10213000002239462046FEF72DFA0022414620466D
:10214000FEF728FA002249462046FEF723FA00222D
:1021500031462046FEF71EFA012000F077FADEE74E
:10216000012231462046FEF715FA01223946204663
:10217000FEF710FA002241462046FEF70BFA002235
:102180000FE0002231462046FEF704FA00223946CD
:102190002046FEF7FFF9012241462046FEF7FAF9F4
:1021A00001224946D5E7012231462046FEF7F2F9E1
:1021B000012249462046FEF7EDF90022414620461D
:1021C000FEF7E8F900223946C3E7012239462046E6
:1021D000FEF7E0F90122B1E700000020000801400D
:1021E00000260B4C0B4D771E607870B100EB400160
:1021F000C1EBC01007EB40006060296848632968A4
:102200008863012000F022FAEEE730466660F4E7CA
:102210000000002000010020084D094CFFF71AFCC7
:1022200018B120210548FFF7A8FD287820706878AC
:102230006070012000F00AFAF0E700004801002079
:102240000000002010B5502080F31188BFF34F8F9D
:10225000BFF36F8F00F028FE18B104494FF0805093
:102260000860002080F3118810BD000004ED00E03C
:1022700010B590B028216846FEF724F814210AA86A
:10228000FEF720F802200090012004901020002486
:10229000059007946846FEF73FFB08B172B6FEE76B
:1022A0000F20CDE90A044FF48060CDE90C400021F5
:1022B0000AA80E94FEF744FA002801D072B6FEE791
:1022C00010B010BD704700000148FFF7DEB80000F5
:1022D000D0030020F0B50268164B174C174D4FF095
:1022E0008047984205D0B84203D0A04201D0A8420E
:1022F00003D122F070064A683243984205D0B842B2
:1023000003D0A04201D0A84203D122F44074CA688D
:1023100022434C6922F08002224302608A68C26232
:102320000A688262984201D1096901630121416111
:10233000F0BD0000002C01400004004000080040F7
:1023400010B501F01F030121046A99408C43046217
:10235000016A9A401143016210BD10B5846842EAD7
:10236000032224F47F440A432243826010BD826822
:1023700022F070020A4342F00701816070470000BA
:1023800030B5036A026A22F001020262426884697F
:1023900024F073050C682C4323F002058B682B4353
:1023A0000A4DA8420BD123F00805CB6822F44072F5
:1023B0002B434D6923F0040315438A692A43426085
:1023C000846149684163036230BD0000002C014014
:1023D00030B5026A036A23F010030362436884691C
:1023E0000D6824F4E64444EA05248D6822F02002B6
:1023F00042EA05120B4DA8420ED1CD6822F08002B0
:1024000042EA05124D6923F4406343EA85038D696E
:1024100022F0400243EA8503436084614968816396
:10242000026230BD002C014030B5036A026A22F41A
:10243000807202624268C46923F4007324F0730559
:102440000C682C438D6843EA05230C4DA8420ED13D
:10245000CD6823F4006343EA05234D6922F440521A
:1024600042EA05128D6923F4806342EA0512426054
:10247000C4614968C163036230BD0000002C0140A3
:1024800030B5046A026A22F4805202624268C3696B
:102490000D6823F4E64343EA05238D6824F40054D1
:1024A00044EA0534064DA84204D14D6922F4804225
:1024B00042EA85124260C36149680164046230BD2A
:1024C000002C014010B5036A046A24F00104046280
:1024D000846924F0F00444EA021423F00A020A4357
:1024E0008461026210BD10B5036A046A24F010040E
:1024F0000462846923F0A00324F4704444EA0232A5
:1025000043EA01118261016210BDFEE70907090E6D
:10251000002804DB00F1E02080F80014704700F090
:102520000F0000F1E02080F8141D7047ACB0FEF7FA
:1025300045F8FFF79DFEFFF771F9FFF7D9F9FFF7AF
:10254000F7F900213548FFF70FF934493622583999
:1025500015A8FDF785FE314C583CE08EADF88A0099
:10256000A06B2390A08FADF89000E08FADF89200A3
:10257000112204F1400125A8FDF772FE94F85100E4
:102580008DF8A500606D2A90542216A96846FDF7C3
:1025900067FE4FF4807251002148159BFFF776FAD1
:1025A000FFF7C2FC1F4C0120D4E90623FFF7AEFB66
:1025B0000120FFF73BFC3420FFF753FC2020FFF7FE
:1025C000A3FCFFF771FBFFF74DFB00211348FFF75A
:1025D000CBF804211148FFF7C7F80020A168034693
:1025E000CDE90001802210A1114800F005FCE0684F
:1025F0000125CDE90050002380220EA10F4800F0F4
:10260000FBFB20690023CDE9005080220CA10E487D
:1026100000F0F2FB00F021F8FEE7000000010020CE
:10262000000C0140000000205461736B3100000079
:102630000D2100085461736B32000000E121000895
:102640005461736B330000001922000810B500B903
:10265000012000F0EBFA002010BD10B500F00CFBDB
:10266000002010BD2DE9F041184C0F460546666963
:102670002068001D00F016FA38B9206890F82C1078
:1026800001208840A1698143A161681C07D137B14D
:102690002168BDE8F0410E48091D00F047BA2068E6
:1026A0003544B5424560216805D2A068BDE8F041D7
:1026B000091D00F023BA6068091D00F01FFA206BA5
:1026C000854200D22563BDE8F0810000480000206B
:1026D0004C0500202DE9F041054600F033FA2E4C60
:1026E0002069401C206120682C4F10B1E06940B384
:1026F0002DE025602069012829D1002606EB8600FF
:1027000007EB800000F0ECF9761C072EF6D3234887
:102710008C3000F0E5F92148A03000F0E1F91F48C5
:10272000B43000F0DDF91D48C83000F0D9F91B487D
:10273000DC3000F0D5F919488C3060601430A060AE
:1027400005E02068E96AC06A884200D82560E06A2E
:10275000401CE062E96A0120A26988401043A06140
:1027600001EB810007EB8000291D00F0DFF900F08C
:1027700009FAE06900280CD02068E96AC06A88423A
:1027800007D207494FF080500860BFF34F8FBFF367
:102790006F8FBDE8F0810000480000207004002029
:1027A00004ED00E010B5044690F8510058B101283E
:1027B0000CD002280FD0502080F31188BFF34F8F28
:1027C000BFF36F8FFEE7206B00F0F0F92046BDE805
:1027D000104000F0EBB910BD10484FF440614207C3
:1027E00006D0C01D0D4920F00700411AC1F5406117
:1027F0000B4A00230144C2E900030839103A21F0D2
:10280000070111604B600B600B1AC0E90013936065
:102810004FF000405360D06070470000600500201A
:1028200094000020144E154CA6F1C8074FF08058B4
:10283000DFF84C9012E000BF00F084F9F068C56842
:10284000281D00F02FF92069401E2061E068401E1D
:10285000E06000F097F92846FFF7A4FFE068002841
:10286000EAD138680128F9D9C9F80080BFF34F8F41
:10287000BFF36F8FF2E7000038050020480000200A
:1028800004ED00E02DE9F0479A46DDE90984814630
:102890006FF00303206B03EB82021044089D20F0CD
:1028A0000706700707D0502080F31188BFF34F8FC1
:1028B000BFF36F8FFEE723180A5C83F834200A5CAD
:1028C00012B1401C1028F6D3002784F84370072D5E
:1028D00000D30625E562C4E91157201D00F00BF96D
:1028E00004F1180000F007F92461C5F107006462E3
:1028F000A061E76484F8507052464946304600F0C3
:10290000BFF82060B8F1000F01D0C8F80040BDE862
:10291000F087000030B5114900E011460A68824294
:10292000FBD34B685C18844203D14068184448606C
:10293000084643681C18944209D1084C103C24688E
:10294000A24209D052681A4442600A6812680260C2
:10295000814200D0086030BD0460F9E79400002097
:1029600006484168096829B14168C968C968496869
:10297000016370474FF0FF31FAE700004800002084
:1029800008484068401C4FF0500080F3118804D084
:10299000BFF34F8FBFF36F8FFEE7BFF34F8FBFF3D0
:1029A0006F8FFEE79C0000202DE9F04105460027CF
:1029B00000F098F9314E306808B9FFF70DFFF06864
:1029C00005424BD1C5B3083568070ED005F00700A6
:1029D000C0F108000544680707D0502080F3118833
:1029E000BFF34F8FBFF36F8FFEE72DB37068854243
:1029F00034D82248103001460C6801E020460C46CD
:102A00006168A94202D221680029F7D131688C425D
:102A100024D007682168016060680837411B1029CD
:102A20000FD96019420708D0502080F31188BFF3F6
:102A30004F8FBFF36F8FFEE710E041606560FFF7D7
:102A400069FF61687068401A7060B268904200D295
:102A5000B060F06801430020C4E9000100F088FA8A
:102A6000780707D0502080F31188BFF34F8FBFF352
:102A70006F8FFEE73846BDE8F0810000840000203B
:102A800010B5031F4FF080741C601B1F21F0010163
:102A90001960191F024B0B60143940380A6010BDD1
:102AA00081290008D0E9013201699A60D0E9012347
:102AB0005A604A68824201D182684A6000220261FB
:102AC0000868401E0860086870470000034B0360F8
:102AD00003F1540008608020106070477C010020E2
:102AE00000F108014FF0FF32C0E90112C16001613D
:102AF00000210160704700210161704730B50B680B
:102B00005A1C02D000F1080202E0026904E02246E9
:102B1000546825689D42FAD953684B6099608A6071
:102B2000516008610168491C016030BD42684A601B
:102B300093688B6093685960916008610168491CD3
:102B400001607047502080F31188BFF34F8FBFF3AF
:102B50006F8F0A494868401C486001280CD108481A
:102B6000006810F0FF0F07D0502080F31188BFF3EA
:102B70004F8FBFF36F8FFEE7704700009C0000206F
:102B800004ED00E00849486828B1401E486001D1C2
:102B900080F311887047502080F31188BFF34F8F66
:102BA000BFF36F8FFEE700009C00002070B5002887
:102BB00027D0144DA0F108046168E868014207D1EC
:102BC000502080F31188BFF34F8FBFF36F8FFEE764
:102BD00022683AB1502080F31188BFF34F8FBFF3C2
:102BE0006F8FFEE78143616000F07CF86068696880
:102BF000084468602046FFF78DFEBDE8704000F095
:102C0000B7B970BD840000204FF0E02000210161C1
:102C1000816105494FF47A720968B1FBF2F1491EEE
:102C200041610721016170472C00002010B50200AE
:102C300014D00F48806B38B1502080F31188BFF357
:102C40004F8FBFF36F8FFEE700F04CF80021104666
:102C5000FFF708FD00F08CF9002807D105494FF077
:102C600080500860BFF34F8FBFF36F8F10BD00001F
:102C70004800002004ED00E010B586B00024039465
:102C800005AA04A903A80494FFF720FFDDE90301C6
:102C90000094CDE9011000230EA11048059A00F020
:102CA000D8F80F490028486311D0502080F31188CC
:102CB000BFF34F8FBFF36F8F4FF0FF3008630120DA
:102CC000C8614C6106B0BDE8104000F041B806B0E4
:102CD00010BD000049444C450000000025280008B4
:102CE000480000200248816B491C81637047000046
:102CF000480000201448816B11B1012141627047E6
:102D0000002141628169B1FA81F1C1F11F0101EB3A
:102D100081020E4951F822306BB101EB820101F1C1
:102D200008034A6852684A609A4201D152684A6070
:102D3000D16801607047502080F31188BFF34F8F36
:102D4000BFF36F8FFEE700004800002070040020F2
:102D50001CB5264908780190FF20087008788DF886
:102D600000009DF800009DF8002000F0F000904267
:102D700007D0502080F31188BFF34F8FBFF36F8FC0
:102D8000FEE79DF800001A4B00F050001870072075
:102D9000986005E09DF8002052008DF80020401E4C
:102DA0009DF800201206F5D49860032807D0502023
:102DB00080F31188BFF34F8FBFF36F8FFEE74FF49F
:102DC00040709860019808700A48016841F47001E9
:102DD0000160016841F070410160FFF715FF0020BC
:102DE0005860FDF7E3F900201CBD000000E400E09E
:102DF0009C00002020ED00E02DE9FF5F8346DDE927
:102E00000E87994616468A469000FFF7CDFD0500CD
:102E10001CD05420FFF7C8FD040014D00020256307
:102E200084F85100CDE90240CDE900874B46324697
:102E300051465846FFF726FD2046FFF74BFC012080
:102E400004B0BDE8F09F2846FFF7B0FE4FF0FF301A
:102E5000F6E7F0B585B0DDE90B640A9DA6B1DCB1FB
:102E6000542700972663022684F85160002604AF99
:102E7000CDE90246CDE90057FFF704FD2046FFF7F4
:102E800029FC049805B0F0BD502080F31188BFF3F1
:102E90004F8FBFF36F8FFEE7502080F31188BFF391
:102EA0004F8FBFF36F8FFEE72DE9F0412E4C0027C7
:102EB000A06B40B1206A401C2062606A00B101270B
:102EC0003846BDE8F0816669761C666113D160689A
:102ED000006838B1502080F31188BFF34F8FBFF3E3
:102EE0006F8FFEE76068A1686160A060A06A401C07
:102EF000A062FFF735FD206BDFF87080864209D3B2
:102F00006068006880B16068C068C56868688642AB
:102F10000DD220632068C06A00EB800158F82100C0
:102F20000128CAD90127C8E74FF0FF30F1E7281D73
:102F3000FFF7B8FDA86A18B105F11800FFF7B2FD58
:102F4000E86A0121A26981401143A16100EB80017F
:102F500008EB8100291DFFF7E9FDE86A2168C96ACD
:102F60008842CDD30127CBE7480000207004002021
:102F70002DE9F0472C4D00242746A86B38B1FFF708
:102F8000E1FDA86B401EA863A86B40B146E050204D
:102F900080F31188BFF34F8FBFF36F8FFEE729696E
:102FA000224E0120D1B3A6F1B40980463068E8B1C1
:102FB000F068C46804F11800FFF774FD201DFFF7E6
:102FC00071FDE06AAA6908FA00F11143A96100EBFA
:102FD000800109EB8100211DFFF7A8FDE06A296847
:102FE000C96A8842E2D3C5F82480DFE70CB1FFF755
:102FF000B7FC2C6A44B14646FFF756FF00B16E623B
:10300000641EF9D100202862686A38B10849012796
:1030100038070860BFF34F8FBFF36F8FFFF7B2FD24
:103020003846BDE8F0870000480000202405002055
:1030300004ED00E0010202030405060708090A0B7B
:103040000C0D0E0F10100000000000000000010227
:10305000030406070809000000000102030411121E
:10306000131415160A0B0C0D0E0F10008C300008EF
:1030700000000020A80000002801000834310008EA
:10308000A8000020181700004401000800000000FC
:103090000000000000000000000000000000000030
:1030A00000000000AA4433221100000001000000CB
:1030B00010000000000000000024F40000000000E8
:1030C0000000000000000000000000000000000000
:1030D00000000000000000000000000000000000F0
:1030E00000000000000000000000000000000000E0
:1030F00000000000000000000000000000000000D0
:1031000000000000000000000000000000000000BF
:1031100000000000000000000000000000000000AF
:10312000000000000000000000000000AAAAAAAAF7
:04313000000000009B
:04000005080000ED02
:00000001FF
