:020000040800F2
:10000000B017002021020008732000081B1B000805
:10001000712000088B030008D929000800000000A7
:10002000000000000000000000000000890100083E
:100030008D03000800000000CD010008E128000841
:100040003B0200083B0200083B0200083B0200089C
:100050003B0200083B0200083B0200083B0200088C
:100060003B0200083B0200083B0200083B0200087C
:100070003B0200083B0200083B0200083B0200086C
:100080003B0200083B0200083B0200083B0200085C
:100090003B0200083B0200083B0200083B0200084C
:1000A0003B0200083B0200083B0200083B0200083C
:1000B0003B0200083B020008612900083B020008DF
:1000C0003B0200083B0200083B0200083B0200081C
:1000D0003B0200083B0200083B0200083B0200080C
:1000E0003B0200083B0200083B02000800F002F857
:1000F00000F03AF80AA090E8000C82448344AAF188
:100100000107DA4501D100F02FF8AFF2090EBAE885
:100110000F0013F0010F18BFFB1A43F0010318473B
:10012000CC340000EC340000103A24BF78C878C109
:10013000FAD8520724BF30C830C144BF04680C60ED
:10014000704700000023002400250026103A28BF35
:1001500078C1FBD8520728BF30C148BF0B60704739
:100160001FB51FBD10B510BD00F0D6F81146FFF742
:10017000F7FF02F043FC00F0F4F803B4FFF7F2FFDE
:1001800003BC00F0FBF80000224B19680868B0E8D7
:10019000F00F80F30988BFF36F8F4FF0000080F3FA
:1001A00011884EF00D0E70470000000006480068F0
:1001B000006880F3088862B661B6BFF34F8FBFF363
:1001C0006F8F00DF00BF00BF08ED00E0EFF3098094
:1001D000BFF36F8F0F4B1A6820E9F00F106008B55E
:1001E0004FF0500080F31188BFF34F8FBFF36F8F34
:1001F00003F046F84FF0000080F31188BDE8084096
:1002000019680868B0E8F00F80F30988BFF36F8FB2
:10021000704700BF40000020EFF3058070470000EA
:100220000948804709480047FEE7FEE7FEE7FEE78A
:10023000FEE7FEE7FEE7FEE7FEE7FEE704480549C6
:10024000054A064B704700005D290008ED000008D4
:10025000B0110020B0170020B0130020B013002010
:1002600010B5203AC0F00B80B1E81850203AA0E851
:100270001850B1E81850A0E81850BFF4F5AF5FEA85
:10028000027C24BFB1E81850A0E8185044BF18C938
:1002900018C0BDE810405FEA827C24BF51F8043BDF
:1002A00040F8043B08BF7047D20728BF31F8023B33
:1002B00048BF11F8012B28BF20F8023B48BF00F8C7
:1002C000012B70474FF0000200B513469446964646
:1002D000203922BFA0E80C50A0E80C50B1F1200159
:1002E000BFF4F7AF090728BFA0E80C5048BF0CC007
:1002F0005DF804EB890028BF40F8042B08BF704765
:1003000048BF20F8022B11F0804F18BF00F8012BD6
:100310007047704770477047754600F02BF8AE463F
:1003200005006946534620F00700854618B020B501
:10033000FFF784FFBDE820404FF000064FF00007B4
:100340004FF000084FF0000B21F00701AC46ACE87D
:10035000C009ACE8C009ACE8C009ACE8C0098D46EA
:10036000704710B50446AFF300802046BDE810404A
:10037000FFF703BF004870475011002001491820C3
:10038000ABBEFEE7260002007047FEE770470000A4
:1003900070B5044600F004F90546601C02D004481C
:1003A0000078044400F0FCF8401BA042FAD370BD72
:1003B000180000202DE9F84FDFF8B8910024A9F1CA
:1003C000040B23460F2709F1040AABF1040EC9E020
:1003D0000125A5402A40AA427DD1674ED1F804C02C
:1003E000ACEB0608B44532D014DCBCF1030F3AD0B4
:1003F00009DCBCF1000F2AD0BCF1010F1CD0BCF10C
:10040000020F31D11DE0BCF1110F17D0BCF1120F5A
:100410002AD119E0B8F5881F19D006DCB8F5803F5D
:1004200015D0B8F5801F1FD111E0B8F5001F0ED010
:10043000B8F5041F18D10AE0CB6815E0CB681B1D86
:1004400012E0CB6808330FE0CB680C330CE08B680C
:100450002BB1012B4FF0080303D0456104E00423C6
:1004600002E0056100E00023FF2A01D8064601E012
:1004700000F104064FEA840501D9A5F12005D6F85C
:10048000008007FA05FC28EA0C0803FA05F548EA9B
:100490000508C6F800804D68ED0062D5374DAE699D
:1004A00046F00106AE61AD6924F0030605F00105D2
:1004B0000095334D06EB050CDCF80850A607360F07
:1004C00007FA06F825EA0805DFF8B880404503D1A9
:1004D0004FF0000817E044E0DFF8AC80404502D15F
:1004E0004FF001080FE0DFF8A480404502D14FF043
:1004F000020808E0DFF89880404502D14FF0030879
:1005000001E04FF0040808FA06F848EA0508CCF8BC
:1005100008804D68D9F80060ED024D4601D51643BC
:1005200000E096432E604D68DAF80060AD02554653
:1005300001D5164300E096432E604D68DBF800605D
:10054000AD035D4601D5164300E096432E604D682D
:10055000DEF80060ED03754601D5164300E09643D2
:100560002E60641C0D682A46E5407FF431AFBDE87B
:10057000F88F000008040140000011100010024034
:100580000000014000080140000C01400010014043
:10059000001401400AB1016170470904FBE7000043
:1005A00001488068704700001800002070B5040002
:1005B00025D094F83D00002520B984F83C50204611
:1005C00000F02EFB242084F83D002068016821F013
:1005D000010101602068016841F400410160206868
:1005E000016821F40041016000F0C8FC4D4A6168D7
:1005F000914201D84C4900E04C49884201D2012087
:1006000070BD4B492368B0FBF1F15E6826F03F06F0
:100610000E435E606368934206D94FF49673594364
:100620004FF47A73B1FBF3F12368491C1E6A26F07C
:100630003F06314319626168914210D84900401E5B
:10064000B0FBF1F2521CC2F30B02042A01D20420C7
:1006500022E0B0FBF1F0401CC0F30B001CE0A268EC
:10066000F2B301EBC10303EB0116431EB3FBF6F338
:100670005B1C43F480431B0549D092B301EBC102DC
:1006800002EB0111401EB0FBF1F0401CC0F30B0067
:1006900040F4804040F400402168CA694CF6FF7382
:1006A0009A431043C861D4E90710014320680268E7
:1006B00022F0C00211430160D4E903010143206824
:1006C000826848F2FF339A4311438160D4E90501FF
:1006D00008432168CA6822F0FF021043C86001E0A5
:1006E0000EE016E02068016841F001010160256418
:1006F000202084F83D00256384F83E50002070BD22
:1007000001EB4106431EB3FBF6F35B1CB3E701208C
:10071000C2E701EB4101401EB0FBF1F0401CC0F309
:100720000B00B7E7A086010080841E0000093D0091
:1007300040420F002DE9FF4F81B089460446FFF784
:100740002FFF054694F83D004FF0000820287DD18A
:100750001923012250492046009501F0F5FA00289E
:1007600074D194F83C00012870D0012084F83C003A
:1007700020680168C90703D1016841F001010160E7
:100780002068016821F400610160242084F83D00A4
:10079000002626644148E0624FF0011B20272068B4
:1007A000016841F48071016000950022594620469D
:1007B000049B01F0C9FA50B120680068C00502D559
:1007C0004FF400702064032005B0BDE8F08F21686D
:1007D00009F0FE000861FFF7E3FE2168054648695D
:1007E0004969C0F34000C1F380214FF0A00A0FE037
:1007F000FFF7D6FE411B0498814200D808B984F85F
:100800003DA0216848694969C0F34000C1F38021D7
:1008100094F83D20A02A02D008B90029E8D084F835
:100820003D7020684169C943890716D4016841F4C5
:10083000007101602068416980691923012216490D
:100840002046009501F080FAB8B900E021E084F874
:100850003D7084F83C600020B6E7016841F4007107
:10086000016021686FF480604861192301220A4900
:100870002046009501F068FA08B10120A4E703982A
:1008800008F1010880458AD384F83D7084F83C6003
:10089000F3E7022098E70000020010000000FFFFCD
:1008A0002DE9FF4F83B00025DDE910799A46934684
:1008B0000446DDF848800095FFF772FE064694F87E
:1008C0003D0020287CD1192301228549204600962D
:1008D00001F03AFA0028F5D194F83C0001286FD0D5
:1008E000012084F83C0020680168C90703D1016831
:1008F00041F0010101602068016821F4006101609C
:10090000222084F83D00402084F83E002564676280
:10091000A4F82A90608D20857248E062CDE90086B7
:1009200053465A462046049901F010F900287DD11B
:10093000208DDFF8B491202768B1012814D0022857
:10094000206801681ED041F480610160206841691F
:1009500080690090B6E02068416981690091016872
:1009600041F400710160ADE02068016821F480610C
:10097000016072B62068416981690091016841F4A3
:1009800000710AE041F40061016072B620684169BB
:1009900081690091016821F48061016062B691E093
:1009A000032868D801280CD0022843464FF00002E3
:1009B0004946204600960FD001F0C6F9B0BB10E0C2
:1009C0008BE032464146204601F064FA70BB206855
:1009D0000069616A08706CE001F0B6F930BB72B66C
:1009E00034E02068016821F48061016072B62068FB
:1009F0000069616A0870606A401C6062208D401E58
:100A00002085608D401E6085384846F2A811006838
:100A1000B0FBF1F0C0EBC00000EB80000090401E86
:100A2000009008D020684069C04300E029E04007FA
:100A30000CD50098F3E744F8305F6773A57320691D
:100A400040F02000206162B625731AE0206801683A
:100A500041F40071016020680069616A0870606A91
:100A6000401C6062218D491E2185618D491E618572
:100A700062B621681BE032464146204601F00AFA80
:100A800018B1012007B0BDE8F08F20680069616AE5
:100A90000870606A401C6062218D491E2185618D4D
:100AA000491E618521684A69D24352070AD40969FF
:100AB0000170606A401C6062208D401E2085608D40
:100AC000401E6085208D00287FF46AAF84F83D7059
:100AD00084F83E5084F83C50D4E70220D2E700006E
:100AE000020010000000FFFF0400010024000020AD
:100AF0002DE9FF4F83B09A46DDE9119793460446EE
:100B0000DDF84080FFF74CFD054694F83D002028B5
:100B10007FD11923012240492046009501F014F9A4
:100B2000002876D194F83C00012872D0012084F886
:100B30003C0020680168C90703D1016841F0010148
:100B400001602068016821F400610160212084F8BF
:100B50003D00402084F83E0000262664C4F824802E
:100B6000A4F82A90608D20852C48E062CDE90075BC
:100B700053465A462046049901F066F870B930E0B1
:100B80002A463946204601F0BDF958B1206C0428A8
:100B900004D12068016841F400710160012007B0B0
:100BA000BDE8F08F606A216800780861606A401CC7
:100BB0006062218D491E89B22185628D521E628537
:100BC00022685369DB435B070BD469B1007810617D
:100BD000606A401C6062208D401E2085608D401E32
:100BE0006085208D0028CBD12A463946204601F069
:100BF0007FF80028CAD154F83D0B016841F4007118
:100C00000160202004F81E09E67766770020C6E719
:100C1000FFE70220C3E70000020010000000FFFF12
:100C200010B586B0002100910191029103910068F6
:100C30000F4988421AD10F4CA06940F00800A0610A
:100C4000A069694600F008000490C02000901220BE
:100C50000190032003900848FFF7ACFBE06940F4E3
:100C60000010E061E06900F40010049006B010BDCF
:100C70000054004000100240000C0140024881680E
:100C8000027811448160704718000020074810B5B1
:100C9000016841F010010160032000F0A7F80F2067
:100CA00000F006F800F050F8002010BD00200240CF
:100CB00030B505461F4887B0C16941F00401C161E4
:100CC000C06906A900F00400009001A800F036F900
:100CD0000498B0B100F052F940001749174AB0FB30
:100CE000F1F11748491E0260416040F2E7320021ED
:100CF000C0E903218160816100F0F3FD040003D0AD
:100D000015E000F03BF9E8E70D4800F019FE04009B
:100D10000DD11E2000F03CF8102D07D200222946EC
:100D20001E2000F043F80748056000E0012407B0EA
:100D3000204630BD0010024040420F000008004035
:100D4000C00300201C0000200F4808B5816941F055
:100D500001018161816901F001010091C16941F0E6
:100D60008051C161C069002200F0805000900F21C5
:100D7000901E00F01BF80548416821F0E06141F049
:100D80000071416008BD00000010024000000140F9
:100D9000002809DB00F01F0201219140400980007A
:100DA00000F1E020C0F8001170470000F0B40E4BD5
:100DB0001B680C46C3F30223C3F10705042D00D9B9
:100DC0000425191D072901D2002300E0DB1E01269E
:100DD00006FA05F1491E214099409E40761E1640B4
:100DE0003143F0BC01F0F9BD0CED00E0064900F024
:100DF000070208684FF6FF03184040EA0220034A42
:100E000010430860704700000CED00E00000FA0598
:100E10002DE9F0470F46050061D0434E306800F0E1
:100E20000700B84209D2306820F00700384330602C
:100E3000306800F00700B84251D128683B4C810768
:100E400012D5400703D5606840F4E0606060287800
:100E5000000703D5606840F4605060606068A9686E
:100E600020F0F000084360602878C00728D0686848
:100E7000012810D02168022810D0890700292EDA15
:100E8000616821F0030101436160FFF789FB80463F
:100E900041F288390DE021688903EFE78901EDE728
:100EA000FFF77EFBA0EB0801494502D90320BDE80E
:100EB000F0876068696800F00C00B0EB810FEFD13B
:100EC000306800F00700B8420BD9306820F0070006
:100ED00038433060306800F00700B84201D001208C
:100EE000E5E72878400705D56068E96820F4E06008
:100EF000084360602878000706D56068296920F4F7
:100F0000605040EAC100606000F048F86168084A3B
:100F1000C1F30311515CC8400649086006480068E7
:100F2000FFF7C6FE0020C2E700200240001002408A
:100F3000D2350008240000201C0000200F2202608F
:100F40000C4A536803F003034360536803F0F00353
:100F50008360536803F4E063C36052684FF4E06356
:100F600003EAD20202610448006800F0070008604A
:100F7000704700000010024000200240044805496C
:100F800000684968044AC1F30221515CC8407047B7
:100F90002400002000100240E23500080E4A51688B
:100FA0000E4801F00C03042B11D0082B0FD10C4874
:100FB000C1F38343C903C05C0AD55168084AC1F331
:100FC0004041921E515C054A5043B0FBF1F070471E
:100FD00004494843704700000010024000127A00A4
:100FE000C235000800093D002DE9F84F040070D01B
:100FF0002078C04DC00749D06868C0F3810001283F
:1010000007D06868C0F38100022809D16868C0036E
:1010100006D52868800339D560680028E7D035E018
:101020006068B0F5803F0BD010B1B0F5A02F11D0A3
:10103000286820F480302860286820F4802002E0AE
:10104000286840F480302860606890B1FFF7A8FA03
:1010500006460AE0286840F480202860F0E700BFD8
:10106000FFF79EFA801B642873D828688003F7D5A1
:101070000CE0FFF795FA064605E000BFFFF790FA8F
:10108000801B6428F0D828688003F7D420789A4E13
:1010900080074FF001094FF0000839D5686810F05B
:1010A0000C0F07D06868C0F38100022809D1686876
:1010B000C00306D42868800714D52069012808D108
:1010C00010E02069B0B1C6F80090FFF769FA074652
:1010D00005E00AE1FFF764FAC01B0228C4D82868BB
:1010E0008007F7D52868616920F0F80040EAC10060
:1010F00028600DE0C6F80080FFF752FA074604E0CA
:10110000FFF74EFAC01B022823D828688007F7D4BF
:10111000207800072CD57948A169D9B1C0F8009092
:10112000FFF73EFA074604E0FFF73AFAC01B022831
:101130000FD8686A8007F7D571484FF4FA510068F4
:10114000B0FBF1F0009000BF0098411E0091FAD270
:101150000EE080E0C0F80080FFF722FA074604E0C6
:10116000FFF71EFAC01B022875D8686A8007F7D4FB
:101170002078400760D5E8690027C00008D4E869F6
:1011800040F08050E861E869012700F0805000904D
:101190005C480168C90513D40168834641F4807135
:1011A0000160FFF7FDF9824606E000BFFFF7F8F99E
:1011B000A0EB0A0064284ED8DBF80000C005F5D586
:1011C000E06801280AD008B1052813D0286A20F069
:1011D00001002862286A20F0040002E0286A40F03A
:1011E00001002862E06841F2883B98B1FFF7D8F926
:1011F00082460BE0286A40F004002862EEE700BF58
:10120000FFF7CEF9A0EB0A0159455AD8286A8007A2
:10121000F6D50CE0FFF7C4F9824605E0FFF7C0F908
:10122000A0EB0A0159454CD8286A8007F6D41FB1B3
:10123000E86920F08050E861E06988B36968C1F32B
:101240008101022944D00228C6F8608004D0FFF74B
:10125000A7F9044638E034E0FFF7A2F9074604E0B6
:10126000FFF79EF9C01B02282BD828688001F7D40D
:10127000206AB0F5803F05D16868A16820F400308D
:1012800008436860D4E908010843696821F47411CF
:1012900008436860C6F86090FFF782F9044606E0EC
:1012A00025E000BFFFF77CF9001B022809D8286859
:1012B0008001F7D51BE000BFFFF772F9001B022881
:1012C00002D90320BDE8F88F28688001F4D40EE02D
:1012D0000128F7D06868226A00F48031914204D175
:1012E000616A00F47010884201D00120EAE7002012
:1012F000E8E7000000100240000042428004424241
:10130000240000200070004070B5040009D0606A1D
:10131000002540B125616561A56294F8510040B196
:101320000CE0012070BD6068B0F5827FF4D0E5610B
:10133000F2E784F85050204600F040F8022084F88C
:1013400051002068016821F040010160A0882189D6
:1013500000F4827001F404410843A18901F40061A2
:101360000843217C01F002010843217D01F00101C5
:101370000843218B01F400710843217F01F03801FB
:10138000084394F8201001F080010843218D01F4F6
:101390000051084321680860A069042101EA104057
:1013A000216848602068C16921F40061C1616565F8
:1013B000012084F85100002070BD000030B585B0D8
:1013C0000024009401940294039400681449884214
:1013D00023D11448816941F480518161816901F40C
:1013E00080510491816941F00401816180690E4D51
:1013F00000F004000490A02000900220019003203F
:10140000039069462846FEF7D5FF4020CDE9000449
:10141000694628460294FEF7CDFF05B030BD0000B6
:101420000030014000100240000801402DE9F84F53
:10143000044690F85100984616460F4600250128AC
:1014400001D0022598E060684FF0040BB0F5827F70
:1014500001D1A068F8B194F85000012826D04FF0CF
:10146000010984F85090FFF79BF88246002F7FD047
:10147000002E7DD084F851B000206065A763A68758
:10148000E6872063A086E08620646064A068B0F5EB
:10149000004F0DD016E084F851B013460A4620469E
:1014A000CDF8008000F024F9BDE8F88F0220FBE7BA
:1014B0002068016821F0400101602068016821F482
:1014C0008041016020680168490603D4016841F049
:1014D00040010160E068D8B13BE020688168C9073D
:1014E00009D0007BA16B0870A06B401CA063E08F4B
:1014F000401EE0870CE0FFF753F8A0EB0A014145DE
:1015000003D3B8F1FF3F03D006E0B8F1000F03D0DA
:10151000E08F0028E1D11FE003252BE020688168DF
:10152000C90709D0C068A16B0880A06B801CA063AC
:10153000E08F401EE0870CE0FFF732F8A0EB0A01D5
:10154000414503D3B8F1FF3F03D0E5E7B8F1000F01
:10155000E2D0E08F0028E1D152464146204601F01A
:10156000B5F808B120206065606D00E000E008B1CA
:10157000012501E084F85190002084F850002846AD
:1015800092E72DE9F84F044690F85000002698465F
:1015900015468A4601280CD0012784F85070FEF7C2
:1015A000FFFF814694F85100B346012804D002267B
:1015B0009AE00220BDE8F88FBAF1000F6FD0002D3D
:1015C0006DD0032084F85100C4F854B0C4F830A0A2
:1015D000A586E586C4F838B0A4F83CB0A4F83EB0BF
:1015E000C4F844B0C4F840B0A068B0F5004F09D1C9
:1015F0002068016821F0400101602068016841F421
:101600008041016020680168490603D4016841F007
:1016100040010160E068B0F5006F606803D058B326
:10162000012D29D049E008B1012D1FD1206B21687F
:101630000088C86006E020688168890709D5216BA9
:101640000988C160206B801C2063E08E401EE0860C
:101650000CE0FEF7A5FFA0EB0901414503D3B8F16B
:10166000FF3F03D006E0B8F1000F03D0E08E002862
:10167000E1D125E0032635E0206B2168007808736E
:1016800006E02068816889070AD5216B0978017313
:10169000206B401C2063E08E401EE0860DE01FE0C2
:1016A000FEF77EFFA0EB0901414503D3B8F1FF3FF0
:1016B00003D0DFE7B8F1000FDCD0E08E0028E0D1E6
:1016C0004A464146204601F02FF808B120206065C7
:1016D000A06818B92068C16880680090606D08B182
:1016E000012601E084F8517084F850B0304661E77B
:1016F0002DE9FF4F81B0044690F8500000260E9F60
:101700001D4693464FF0010901280FD04FF0010A02
:1017100084F850A0FEF744FF804694F851006168B9
:1017200001280DD0B1F5827F08D103E0022005B079
:10173000BDE8F08FA16809B9042801D00226C9E0EC
:101740000298002865D0BBF1000FFBD0002DF9D026
:1017500094F85100042802D0052084F8510000209C
:101760006065C4F838B0E587A58702992163E586EE
:10177000A5862064606420680168490603D4016876
:1017800041F040010160E068B0F5006F606803D08F
:10179000F0B3012D47D081E008B1012D3CD1206B81
:1017A00021680088C860206B801C2063E08E401E8A
:1017B000E08631E02068816889070FD5E18E69B144
:1017C000B9F1010F0AD1216B0988C160206B801C1F
:1017D0002063E08E401EE0864FF00009206881689B
:1017E000C9070CD0E18F51B1C068A16B0880A06B14
:1017F000801CA063E08F401EE0874FF00109FEF7D8
:10180000CFFEA0EB0800B84206D3781C04D001E05C
:1018100009E05BE003265BE0E08E0028CAD1E08FA0
:101820000028C7D140E0206B216800780873206B46
:10183000401C2063E08E401EE0862FE02068816817
:1018400089070FD5E18E69B1B9F1010F0AD1216B7A
:1018500009780173206B401C2063E08E401EE086F7
:101860004FF0000920688168C9070CD0E18F51B1A1
:10187000C068A16B0870A06B401CA063E08F401E85
:10188000E0874FF00109FEF78BFEA0EB0800B8429D
:1018900002D3781C02D0BAE7002FB8D0E08E00281F
:1018A000CCD1E08F0028C9D142463946204600F00D
:1018B0003BFF18B10126202060650BE0A06818B935
:1018C0002068C16880680090606D08B1012601E061
:1018D00084F851A0002084F85000304627E7704774
:1018E000704710B5040003D094F83D0010B107E034
:1018F000012010BD002084F83C00204600F01EF8B6
:10190000022084F83D00211D206801F02FF80120FD
:1019100084F8460084F83E0084F83F0084F84000D4
:1019200084F8410084F8420084F8430084F84400BD
:1019300084F8450084F83D00002010BD7047000089
:1019400090F83D10012901D001207047022180F854
:101950003D100168CA6842F00102CA6000680B4984
:10196000884208D0B0F1804F05D00949884202D0A2
:101970000849884204D1816801F00701062903D093
:10198000016841F00101016000207047002C014016
:101990000004004000080040704770B5044600682D
:1019A00001694FF00005C943890715D4C168C943CF
:1019B000890711D4E91E0161012020772068806920
:1019C0008007204602D0FFF7E7FF04E000F098F818
:1019D000204600F096F8257720680169C943490739
:1019E00017D4C168C943490713D46FF004010161DA
:1019F000022020772068806910F4407F204602D0C2
:101A0000FFF7CAFF04E000F07BF8204600F079F809
:101A1000257720680169C943090716D4C168C943FD
:101A2000090712D46FF008010161042020772068B3
:101A3000C0698007204602D0FFF7AEFF04E000F047
:101A40005FF8204600F05DF8257720680169C943FA
:101A5000C90617D4C168C943C90613D46FF0100171
:101A60000161082020772068C06910F4407F20467B
:101A700002D0FFF791FF04E000F042F8204600F0AA
:101A800040F8257720680169C943C90708D1C168B2
:101A9000C943C90704D1891E0161204600F032F80C
:101AA00020680169C943090609D4C168C943090608
:101AB00005D46FF0800101612046FFF710FF206818
:101AC0000169C943490609D4C168C943490605D417
:101AD0006FF040010161204600F01EF820680169A6
:101AE000C94389060BD4C168C943890607D46FF07E
:101AF000200101612046BDE87040FFF7F1BE70BDD6
:101B00007047704700680349884201D1FFF7B6B8B3
:101B100070470000000800407047FEE701684A690E
:101B2000D24352050FD46FF480624A61002140F81D
:101B3000301F202242738173026942F00402026165
:101B40000173012070470020704700002DE9F84F15
:101B50000446006889460B9D01689846174641F483
:101B6000806101602068016841F480710160009526
:101B70004FF0011B0022594620460A9B00F0E4F872
:101B80004FF4007A40B120680068C00501D5C4F860
:101B900040A00320BDE8F88F216809F0FE0008612D
:101BA0002B46284920460A9A00F016F9F0BB206817
:101BB0004169806900902A4620460A9900F0A2F9FE
:101BC00040B1206C04283AD12068016841F40071CA
:101BD000016034E0FEB2B8F1010F09D02168380A83
:101BE00008612A4620460A9900F08CF90028E8D1BD
:101BF000206806612A4620460A9900F083F90028E9
:101C0000DFD12068016841F48071016000950022F5
:101C1000594620460A9B00F097F80028B3D1216866
:101C200009F0FF0040F00100086100E007E02B46EA
:101C3000044920460A9A00F0CFF80028AAD00120D3
:101C4000A8E70000020001002DE9F84304460068FF
:101C50000D46DDE9089701689846164641F4807103
:101C600001604B4600224FF001112046009700F022
:101C70006BF848B120680068C00502D54FF40070C9
:101C800020640320BDE8F883216805F0FE000861A8
:101C90003B464A461549204600F09EF888B9206820
:101CA0004169806900903A464946204600F02AF989
:101CB00048B1206C042804D12068016841F4007107
:101CC00001600120DEE7F5B2B8F1010F09D021680B
:101CD000300A08613A464946204600F013F90028C8
:101CE000E7D1206805610020CCE700000200010078
:101CF00070B516460D4604461EE02046FFF70EFF5F
:101D000008B1012070BD681C16D0FEF749FC801B8D
:101D1000A84200D885B920684069C04340070BD568
:101D2000002044F8300F20216173A073216941F035
:101D3000200121612073E4E720684069C043400727
:101D4000DBD4002070BD00002DE9F047984617460F
:101D50000D460446C1F30746DDF820902AE000BF97
:101D6000B8F1FF3F26D0FEF71BFCA0EB090141456F
:101D700002D8B8F1000F1DD12068012E16D080695D
:101D800025EA00000004000C12D00020B84211D156
:101D9000002044F8300F20216173A073216941F0C5
:101DA0002001216120730120BDE8F0874069E7E749
:101DB0000120EBE72068012E0AD0806925EA0000A7
:101DC0000004000C06D00020B842C9D00020EBE788
:101DD0004069F3E70120F7E72DE9F04798461646FA
:101DE0000D4604464FF000094FF0200AC1F30747A3
:101DF00023E020684069C043400515D4206801688D
:101E000041F40071016021686FF480604861C4F89A
:101E1000309084F83DA084F83E90216C41F004019C
:101E2000216484F83C9021E0701C06D0FEF7B8FBDA
:101E3000A0EB0800B04203D816B1012F1FD021E05B
:101E40002068012F15D0806925EA00000004000CED
:101E500018D000BF44F8309F84F80DA084F80E908D
:101E6000216941F02001216184F80C900120BDE836
:101E7000F087406925EA00000004000CEAD12068E0
:101E8000406901E02068806925EA00000004000C38
:101E9000AFD1ECE72DE9F041002590460E4604460F
:101EA000202728E04069C043C0060CD454F8301BFA
:101EB0006FF01000486144F810596777A577206AE1
:101EC0002062257714E0FEF76BFBA0EB0800B04220
:101ED00000D886B920684069C04340060BD544F855
:101EE000305F6773A573206940F02000206125737F
:101EF0000120BDE8F08120684169C9434906D1D479
:101F00000020F6E770B516460D4604461EE0204652
:101F1000FFF704FE08B1012070BD681C16D0FEF763
:101F20003FFB801BA84200D885B920684069C043A8
:101F300000060BD5002044F8300F20216173A073F8
:101F4000216941F0200121612073E4E720684069A4
:101F5000C0430006DBD4002070BD00002DE9F04F27
:101F600085B000242E480094019402940394816962
:101F700041F010018161816901F0100104918169D2
:101F800041F020018161816901F0200104918169A2
:101F900041F004018161816901F0040104918169CA
:101FA00041F0080181618069DFF8789000F0080055
:101FB0004FF400550490002229464846FEF7EAFAFD
:101FC000DFF864A0AF00002239465046FEF7E2FA7F
:101FD000DFF858B04FF44078002241465846FEF7EB
:101FE000D9FA0095022601250396CDE901546946E8
:101FF0004846FEF7DFF900970396CDE9015469469C
:102000005046FEF7D7F9CDF800800396CDE901548C
:1020100069465846FEF7CEF905B0BDE8F08F0000DE
:10202000001002400010014000080140000C014077
:102030000E4810B50C4901604FF4827141600021D7
:102040008160C1604FF400720161C0E90512C16195
:102050000162416281620A21C162FFF755F90028DD
:1020600001D072B6FEE710BD00300140F400002040
:10207000FEE7FEE708B5002000F006F950208DF8D5
:10208000000073208DF80100642302226946034892
:10209000FFF777FA012000F0F7F808BD08040020E8
:1020A0000449054A0968B1FBF2F14143491EFDD2DA
:1020B0007047000024000020C0C62D0070B5054602
:1020C00000F053F90446C0F380166EB115B1C4F3A5
:1020D000420028704021072000F0C2FAA00603D574
:1020E0002021072000F0BCFA304670BD0FB47CB54B
:1020F00014460D460646582209A95C48FEF7B0F87A
:102100005B4B0120DE60DD801C8100F0BDF800200B
:1021100000F0B0F80520FEF73BF90821002000F0A0
:102120009FFA3F21012000F09BFA0321022000F0DA
:1021300097FA0321084600F093FA0321042000F0E7
:102140008FFA0221052000F08BFA0F21062000F003
:1021500087FA0E21072000F083FA0021082000F002
:102160007FFA0021092000F07BFAE7248DF8034074
:102170008DF802408DF801408DF804408DF8004044
:10218000052269460A2000F083FAC2208DF8030078
:102190008DF802008DF801008DF804008DF8000024
:1021A000052269460B2000F073FAC3210C2000F0D1
:1021B00057FAC4210D2000F053FAC5210E2000F07B
:1021C0004FFAC6210F2000F04BFA8DF803408DF82E
:1021D00002408DF801408DF804408DF80040052242
:1021E0006946102000F054FA0021112000F038FA5E
:1021F0000021122000F034FA0021132000F030FA00
:102200000021142000F02CFA0021152000F028FAFB
:102210000021162000F024FAFFF72CFF00211C20DB
:1022200000F01EFA00211D2000F01AFA0F210846C6
:1022300000F078F9032000F04FF9012000F01EF9BA
:10224000022000F000F900F029F8202000F062F9E7
:1022500000F0EEF84C2000F00AF900F07FF800F0F2
:1022600079F800F09BF87CBC5DF814FB08040020B2
:1022700028000020020003480189C06800D0012224
:10228000FEF788B92800002002000348C188C06812
:1022900000D00122FEF77EB92800002010B51D20D5
:1022A00000F088F820F004011D2000F0D9F9002189
:1022B0001C2000F0D5F902490020C87010BD0000B4
:1022C0002800002010B51D2000F074F840F0060131
:1022D0001D2000F0C5F91D2000F06CF848B9FFF78B
:1022E000C9FE1D2000F066F840F006011D2000F038
:1022F000B7F91C2000F05EF840F00301BDE8104083
:102300001C2000F0ADB9000010B51D2000F052F8FF
:1023100040F004011D2000F0A3F91D2000F04AF850
:1023200048B9FFF7A7FE1D2000F044F840F0040173
:102330001D2000F095F91C2000F03CF840F03F0112
:102340001C2000F08DF902490120C87010BD00006A
:1023500028000020FF21E22000F082B9FF21E120C7
:1023600000F07EB9602000F025B8072000F022B808
:1023700013B5052269460A2000F08AF9052269464C
:10238000102000F085F904488178202900D320210D
:10239000112000F065F91CBD2800002010B50020B8
:1023A00000F008F820F00201BDE81040002000F025
:1023B00057B9000038B504460020FFF765FF04F068
:1023C0001F008DF800006423012269460848FFF7CA
:1023D000D8F86423012206480DF10101FFF726F821
:1023E0009DF801400120FFF74FFF204638BD000057
:1023F00008040020F8B5044615460E460020FFF7F5
:1024000043FF04F01F008DF8000064230122694699
:102410000648FFF7B6F864232A4631460348FFF71B
:1024200005F80120FFF730FFF8BD00000804002088
:102430007021072000F014B908B13F2100E000210D
:10244000012000F00DB910B504460020FFF7B2FFDF
:1024500020F00C011CB1012C06D041F00C01BDE8AC
:102460001040002000F0FCB841F00801F7E77F2899
:1024700000D37F200146052000F0F2B82DE9F0419D
:1024800007464FF000080620FFF794FF114D002685
:1024900020F028046E71022F0ED0012F10D06E7123
:1024A0002146062000F0DCF80620FFF783FFA0425B
:1024B0000BD14FF0010809E06E7144F02004EFE702
:1024C0000120687144F00804EAE76E714046BDE8F7
:1024D000F08100002800002010B504460620FFF718
:1024E00069FF20F00601032C0DD0022C05D0012C31
:1024F00006D054B1042C06D007E041F0040104E0FA
:1025000041F0020101E041F00601BDE81040062063
:1025100000F0A6B8202800D3202001498870704719
:102520002800002000F00F0060F31F11042000F0CD
:1025300097B870B505460C460020FFF79BFE0020BB
:10254000FFF738FF20F0010040F00201002000F00A
:1025500087F80120FFF78EFE9620FFF7A1FD2146A8
:10256000284600F061F80120FFF784FE0F20FFF7F6
:1025700097FDBDE870400020FFF77CBE10B500203D
:10258000FFF778FEFFF7EAFEBDE81040FFF7E2BE76
:102590002DE9F04115460E460446FFF7E6FE0746D4
:1025A000002020707021072000F05AF8C7F3401077
:1025B0002070C7F300103070C7F380102870BDE89A
:1025C000F08100003EB50C460546FFF731FF21467D
:1025D0002846FFF7AEFFFDF7E3FF0446012201A9FD
:1025E0000820FFF707FFFFF7C0FE10F0300F04D1FF
:1025F000FDF7D6FF001B0A28F0D30A4A02A9684655
:10260000FFF7C6FF074C9DF80050207810B1FFF788
:10261000A9FE60700020FFF751FDFFF79FFE2846DE
:102620003EBD00002800002038B505460C460020BD
:10263000FFF72AFEA0208DF80000642301226946DE
:102640000648FEF79EFF6423224629460348FEF70C
:1026500098FF0120FFF718FE38BD00000804002095
:1026600038B505460C460020FFF70EFE45F0200069
:102670008DF800008DF8014064230222694603486A
:10268000FEF77FFF0120FFF7FFFD38BD08040020A3
:10269000F8B5044615460E460020FFF7F5FD44F058
:1026A00020008DF800006423012269460648FEF7E9
:1026B00068FF64232A4631460348FEF762FF012083
:1026C000FFF7E2FDF8BD000008040020F8B504465D
:1026D00040684FF48273984217D1A0684FF4806528
:1026E000B0F5004F01D0A8420FD12068066826F04F
:1026F000400606606068984207D1A068A84204D1ED
:1027000000920B460022012103E000920B460022BA
:102710008021204600F018F8002804D0606D40F0B9
:10272000200060650320F8BD38B50B4600920446D2
:102730000022802100F008F8002804D0606D40F0ED
:1027400020006065032038BD2DE9F8431E46914600
:1027500088460446089DFDF723FF401B351AFDF708
:102760001FFF074625480068C0F3CB30684338E0B8
:10277000701C37D0FDF714FFC01BA84203D215B15F
:10278000009860B32CE02068416821F0E0014160CE
:102790006068B0F5827F0BD1A068B0F5004F02D021
:1027A000B0F5806F04D12068016821F0400101601C
:1027B000A06AB0F5005F09D12068016821F40051DA
:1027C00001602068016841F400510160012084F833
:1027D0005100002084F850000320BDE8F883002554
:1027E000401E00902068816838EA010004D0002172
:1027F0004945BDD10020F0E70121F9E72400002080
:10280000064D074C202168782070287860700448B5
:10281000FFF7D8FE012000F0DFF9F3E70000002009
:102820004C01002040F6B8377D42DFF8AC802B4CDD
:102830004FF47A7904264FF0000A00BF00F09CF9AB
:10284000608000F0B1F9A080A84201DDB84217DB3A
:10285000B4F90210A94201DAB94234DCA8420BDC17
:102860000121617000F6B83292FBF8F1491CC9B23F
:102870002170042900D92670B84228DB022116E015
:10288000B4F90200A84201DDB8421CDBA8420ADC10
:1028900000F6B83191FBF8F1491CC9B2667021709D
:1028A000042900D92670B0F57A6F10DB0321A0F659
:1028B000B83090FBF9F0401CC0B261702070042861
:1028C00005D9267003E084F801A084F800A0012057
:1028D00000F082F9B2E7000018FCFFFF00000020C2
:1028E00010B5502080F31188BFF34F8FBFF36F8F67
:1028F00000F0A0FD18B104494FF08050086000209E
:1029000080F3118810BD000004ED00E010B590B018
:1029100028216846FDF7D6FC14210AA8FDF7D2FC51
:1029200002200090012004901020002405900794BC
:102930006846FEF759FB08B172B6FEE70F20CDE9F5
:102940000A040C940D9400210AA80E94FEF760FA74
:10295000002801D072B6FEE710B010BD704700002D
:102960000148FFF71AB80000C0030020F0B5026864
:10297000164B174C174D4FF08047984205D0B84280
:1029800003D0A04201D0A84203D122F070064A68C9
:102990003243984205D0B84203D0A04201D0A842A9
:1029A00003D122F44074CA6822434C6922F08002A9
:1029B000224302608A68C2620A688262984201D138
:1029C0000969016301214161F0BD0000002C014053
:1029D0000004004000080040FEE70907090E002837
:1029E00004DB00F1E02080F80014704700F00F00D5
:1029F00000F1E02080F8141D70470000ACB0FEF735
:102A000045F9FFF783FFFFF7A9FAFFF711FB3748F6
:102A10003549002401603649C0E901144FF4804172
:102A2000C0E9034144618461C4610462FDF7BEFDF5
:102A300008B172B6FEE700F06DF82C493622543129
:102A400015A8FDF70DFC294D5435E88EADF88A0028
:102A500005F12C00C1682391008AADF89000E88F41
:102A6000ADF89200112205F1400125A8FDF7F8FB11
:102A700095F851008DF8A500686D2A90542216A98A
:102A80006846FDF7EDFB4FF4807251001948159B25
:102A9000FFF72CFBFFF772FD174DD5E90401FFF797
:102AA00067FC0120FFF7C8FC3420FFF7E0FC202082
:102AB000FFF730FDFFF728FCFFF704FCA8680023B0
:102AC000CDE9004080220DA10E4800F05BFCE968D2
:102AD0000120CDE90001002380220BA10C4800F069
:102AE00051FC00F080F8FEE700540040A0000020F8
:102AF000A0860100000C0140000000205461736BAF
:102B000031000000012800085461736B320000009E
:102B1000252800082DE9FF4164230122D021154812
:102B2000FDF708FE0827012503AE8DF80C7064241C
:102B30000096CDE901542B461B22D0210D48FDF70C
:102B4000D7FF8DF80C700096CDE9015401231C22AB
:102B5000D0210848FDF7CCFF00208DF80C0000962E
:102B6000CDE9015401236B22D0210248FDF7C0FFBB
:102B7000BDE8FF81A00000201FB56422022103A848
:102B80008DE8070001233B22D1210648FDF788FE8E
:102B90009DF80D009DF80C1004B000EB012000B270
:102BA00010BD0000A00000201FB56422022103A870
:102BB0008DE8070001233D22D1210648FDF770FE74
:102BC0009DF80D009DF80C1004B000EB012000B240
:102BD00010BD0000A000002010B500B9012000F0D9
:102BE000EBFA002010BD10B500F00CFB002010BD6A
:102BF0002DE9F041184C0F46054666692068001D16
:102C000000F016FA38B9206890F82C10012088409E
:102C1000A1698143A161681C07D137B12168BDE872
:102C2000F0410E48091D00F047BA20683544B5420E
:102C30004560216805D2A068BDE8F041091D00F09B
:102C400023BA6068091D00F01FFA206B854200D28C
:102C50002563BDE8F0810000400000203C05002015
:102C60002DE9F041054600F033FA2E4C2069401C56
:102C7000206120682C4F10B1E06940B32DE0256041
:102C80002069012829D1002606EB860007EB800089
:102C900000F0ECF9761C072EF6D323488C3000F0B8
:102CA000E5F92148A03000F0E1F91F48B43000F008
:102CB000DDF91D48C83000F0D9F91B48DC3000F0C0
:102CC000D5F919488C3060601430A06005E02068A8
:102CD000E96AC06A884200D82560E06A401CE06268
:102CE000E96A0120A26988401043A06101EB8100DC
:102CF00007EB8000291D00F0DFF900F009FAE06918
:102D000000280CD02068E96AC06A884207D20749C7
:102D10004FF080500860BFF34F8FBFF36F8FBDE857
:102D2000F0810000400000206004002004ED00E07D
:102D300010B5044690F8510058B101280CD0022873
:102D40000FD0502080F31188BFF34F8FBFF36F8FE8
:102D5000FEE7206B00F0F0F92046BDE8104000F0DF
:102D6000EBB910BD10484FF44061420706D0C01DBA
:102D70000D4920F00700411AC1F540610B4A0023BC
:102D80000144C2E900030839103A21F0070111603B
:102D90004B600B600B1AC0E9001393604FF00040CA
:102DA0005360D06070470000500500208C00002068
:102DB000144E154CA6F1C8074FF08058DFF84C9020
:102DC00012E000BF00F084F9F068C568281D00F02B
:102DD0002FF92069401E2061E068401EE06000F08D
:102DE00097F92846FFF7A4FFE0680028EAD1386881
:102DF0000128F9D9C9F80080BFF34F8FBFF36F8F57
:102E0000F2E70000280500204000002004ED00E06B
:102E10002DE9F0479A46DDE9098481466FF0030306
:102E2000206B03EB82021044089D20F00706700718
:102E300007D0502080F31188BFF34F8FBFF36F8FFF
:102E4000FEE723180A5C83F834200A5C12B1401CA8
:102E50001028F6D3002784F84370072D00D30625E9
:102E6000E562C4E91157201D00F00BF904F11800C8
:102E700000F007F92461C5F107006462A061E7640E
:102E800084F8507052464946304600F0BFF8206042
:102E9000B8F1000F01D0C8F80040BDE8F08700008D
:102EA00030B5114900E011460A688242FBD34B68F5
:102EB0005C18844203D1406818444860084643685F
:102EC0001C18944209D1084C103C2468A24209D035
:102ED00052681A4442600A6812680260814200D057
:102EE000086030BD0460F9E78C00002006484168A6
:102EF000096829B14168C968C968496801637047B0
:102F00004FF0FF31FAE70000400000200848406819
:102F1000401C4FF0500080F3118804D0BFF34F8F56
:102F2000BFF36F8FFEE7BFF34F8FBFF36F8FFEE7E7
:102F3000940000202DE9F0410546002700F098F9A3
:102F4000314E306808B9FFF70DFFF06805424BD1EC
:102F5000C5B3083568070ED005F00700C0F10800BA
:102F60000544680707D0502080F31188BFF34F8FC6
:102F7000BFF36F8FFEE72DB37068854234D82248C7
:102F8000103001460C6801E020460C466168A942F9
:102F900002D221680029F7D131688C4224D0076819
:102FA0002168016060680837411B10290FD960193A
:102FB000420708D0502080F31188BFF34F8FBFF332
:102FC0006F8FFEE710E041606560FFF769FF6168A1
:102FD0007068401A7060B268904200D2B060F068C9
:102FE00001430020C4E9000100F088FA780707D007
:102FF000502080F31188BFF34F8FBFF36F8FFEE730
:103000003846BDE8F08100007C00002010B5031FA9
:103010004FF080741C601B1F21F001011960191F03
:10302000024B0B60143940380A6010BD0D2F0008A8
:10303000D0E9013201699A60D0E901235A604A68F7
:10304000824201D182684A60002202610868401E03
:103050000860086870470000034B036003F15400E8
:1030600008608020106070476C01002000F10801AA
:103070004FF0FF32C0E90112C1600161002101601F
:10308000704700210161704730B50B685A1C02D0AF
:1030900000F1080202E0026904E022465468256853
:1030A0009D42FAD953684B6099608A60516008610B
:1030B0000168491C016030BD42684A6093688B60BA
:1030C00093685960916008610168491C016070470C
:1030D000502080F31188BFF34F8FBFF36F8F0A49E1
:1030E0004868401C486001280CD10848006810F06E
:1030F000FF0F07D0502080F31188BFF34F8FBFF32D
:103100006F8FFEE7704700009400002004ED00E0A0
:103110000849486828B1401E486001D180F31188F1
:103120007047502080F31188BFF34F8FBFF36F8F2C
:10313000FEE700009400002070B5002827D0144D51
:10314000A0F108046168E868014207D1502080F3CB
:103150001188BFF34F8FBFF36F8FFEE722683AB13C
:10316000502080F31188BFF34F8FBFF36F8FFEE7BE
:103170008143616000F07CF86068696808446860B9
:103180002046FFF78DFEBDE8704000F0B7B970BD76
:103190007C0000204FF0E0200021016181610549A1
:1031A0004FF47A720968B1FBF2F1491E41610721BF
:1031B000016170472400002010B5020014D00F48B0
:1031C000806B38B1502080F31188BFF34F8FBFF36D
:1031D0006F8FFEE700F04CF800211046FFF708FD66
:1031E00000F08CF9002807D105494FF080500860A5
:1031F000BFF34F8FBFF36F8F10BD00004000002062
:1032000004ED00E010B586B00024039405AA04A9DB
:1032100003A80494FFF720FFDDE903010094CDE942
:10322000011000230EA11048059A00F0D8F80F49AC
:103230000028486311D0502080F31188BFF34F8FCE
:10324000BFF36F8F4FF0FF3008630120C8614C61FE
:1032500006B0BDE8104000F041B806B010BD000057
:1032600049444C4500000000B12D000840000020FA
:103270000248816B491C81637047000040000020B8
:103280001448816B11B101214162704700214162F4
:103290008169B1FA81F1C1F11F0101EB81020E498F
:1032A00051F822306BB101EB820101F108034A6849
:1032B00052684A609A4201D152684A60D1680160FE
:1032C0007047502080F31188BFF34F8FBFF36F8F8B
:1032D000FEE7000040000020600400201CB52649E5
:1032E00008780190FF20087008788DF800009DF89C
:1032F00000009DF8002000F0F000904207D0502020
:1033000080F31188BFF34F8FBFF36F8FFEE79DF8F7
:1033100000001A4B00F0500018700720986005E07C
:103320009DF8002052008DF80020401E9DF80020DE
:103330001206F5D49860032807D0502080F3118836
:10334000BFF34F8FBFF36F8FFEE74FF4407098606D
:10335000019808700A48016841F470010160016831
:1033600041F070410160FFF715FF00205860FCF745
:103370001DFF00201CBD000000E400E094000020C0
:1033800020ED00E02DE9FF5F8346DDE90E879946D9
:1033900016468A469000FFF7CDFD05001CD054204C
:1033A000FFF7C8FD040014D00020256384F8510005
:1033B000CDE90240CDE900874B463246514658469A
:1033C000FFF726FD2046FFF74BFC012004B0BDE8C7
:1033D000F09F2846FFF7B0FE4FF0FF30F6E7F0B55C
:1033E00085B0DDE90B640A9DA6B1DCB154270097D6
:1033F0002663022684F85160002604AFCDE9024618
:10340000CDE90057FFF704FD2046FFF729FC04989B
:1034100005B0F0BD502080F31188BFF34F8FBFF38C
:103420006F8FFEE7502080F31188BFF34F8FBFF3FB
:103430006F8FFEE72DE9F0412E4C0027A06B40B1C5
:10344000206A401C2062606A00B101273846BDE84E
:10345000F0816669761C666113D16068006838B1D6
:10346000502080F31188BFF34F8FBFF36F8FFEE7BB
:103470006068A1686160A060A06A401CA062FFF75C
:1034800035FD206BDFF87080864209D360680068E4
:1034900080B16068C068C568686886420DD22063E4
:1034A0002068C06A00EB800158F821000128CAD9C1
:1034B0000127C8E74FF0FF30F1E7281DFFF7B8FDFF
:1034C000A86A18B105F11800FFF7B2FDE86A0121FA
:1034D000A26981401143A16100EB800108EB8100EA
:1034E000291DFFF7E9FDE86A2168C96A8842CDD342
:1034F0000127CBE740000020600400202DE9F047C1
:103500002C4D00242746A86B38B1FFF7E1FDA86BCE
:10351000401EA863A86B40B146E0502080F311889C
:10352000BFF34F8FBFF36F8FFEE72969224E012053
:10353000D1B3A6F1B40980463068E8B1F068C46838
:1035400004F11800FFF774FD201DFFF771FDE06A1C
:10355000AA6908FA00F11143A96100EB800109EBA7
:103560008100211DFFF7A8FDE06A2968C96A884229
:10357000E2D3C5F82480DFE70CB1FFF7B7FC2C6A73
:1035800044B14646FFF756FF00B16E62641EF9D1A2
:1035900000202862686A38B10849012738070860A6
:1035A000BFF34F8FBFF36F8FFFF7B2FD3846BDE813
:1035B000F0870000400000201405002004ED00E02A
:1035C000010202030405060708090A0B0C0D0E0F81
:1035D00010100000000000000000010203040607B4
:1035E0000809000000000102030400000C36000876
:1035F00000000020A000000028010008AC360008F0
:10360000A000002010170000440100080000000086
:10361000000000000000000000000000AA44332267
:103620001100000001000000100000000000000078
:103630000024F40000000000000000000000000072
:10364000000000000000000000000000000000007A
:10365000000000000000000000000000000000006A
:10366000000000000000000000000000000000005A
:10367000000000000000000000000000000000004A
:10368000000000000000000000000000000000003A
:10369000000000000000000000000000000000002A
:0C36A00000000000AAAAAAAA0000000076
:04000005080000ED02
:00000001FF
